:100000000C943E000C9431010C9431010C9431019C
:100010000C9431010C9431010C9431010C94310198
:100020000C9431010C9431010C9431010C94310188
:100030000C9431010C9431010C9431010C94310178
:100040000C9431010C9431010C9431010C94310168
:100050000C9431010C9431010C9431010C94310158
:100060000C9431010C9431010C9431010C94310148
:100070000C9431010C9431010C94310111241FBEF8
:10008000CFEFD4E0DEBFCDBF01C0EDC00E944A007B
:100090000C947E01112484B7E1E6F0E090E89083AF
:1000A0001082882369F0982F9A70923049F081FF6E
:1000B00002C097EF94BF282E80E00E94620121C108
:1000C00085E08093810082E08093C00088E1809386
:1000D000C1008FE08093C40086E08093C200219A23
:1000E000299888E20E946201539A24E1A4E8B0E0D2
:1000F0008CE79CEF31E0E0ECF0E011969C938E935E
:1001000036BBB09BFECF4B9AA8954081442314F098
:10011000215099F7C12CDD24D3940E9455018134DC
:10012000A9F40E945501182F0E946801123821F489
:1001300080E00E94430191C0113821F487E00E94C1
:1001400043018BC083E00E94430187C0823421F4C5
:1001500084E10E94740181C0853421F485E00E940D
:1001600074017BC0853559F40E945501C82F0E9447
:100170005501D82FCC0FDD1F0E9468016EC0863557
:1001800039F484E00E94740180E00E94430165C05C
:100190008436B9F50E9455010E945501B82E0E947F
:1001A0005501F82E0C2D1D2D0E945501F80181934B
:1001B0008F01BE12F9CF0E9468019C2EAD2EF5E48E
:1001C000FF1201C0FFCF40E050E063E0CE010E948B
:1001D00033017E010C2D1D2DF801419151918F01AC
:1001E00061E0C7010E943301F2E0EF0EF11CB01292
:1001F000F3CF40E050E065E0892D9A2D0E94330155
:100200002CC0843791F40E9455010E945501F82EAC
:100210000E9455010E9468018E01F80185918F01AD
:100220000E944301FA94C9F718C0853761F40E940F
:1002300068018EE10E94430184E90E9443018AE043
:100240000E9443010AC0813531F488E00E946201B6
:100250000E94680102C00E94680180E10E9443017F
:100260005CCF0C940000FC010A0167BFE8951124E3
:1002700007B600FCFDCF667029F0452B19F481E12B
:1002800087BFE8950895E0ECF0E0908195FFFDCF01
:1002900090649093C000299A8093C600E0ECF0E04F
:1002A000808186FFFDCF29980895E0ECF0E0808101
:1002B0008823ECF78091C00084FD01C0A89580914F
:1002C000C6000895E0E6F0E098E190838083089509
:1002D0000E945501803221F088E00E946201FFCF28
:1002E00084E10E9443010895CF93C82F0E945501D5
:1002F000C150E1F70E946801CF910895F894FFCFB3
:020300000007F4
:00000001FF
