:10FC00000C943E7E0C94477F0C94477F0C94477F66
:10FC10000C94477F0C94477F0C94477F0C94477F4C
:10FC20000C94477F0C94477F0C94477F0C94477F3C
:10FC30000C94477F0C94477F0C94477F0C94477F2C
:10FC40000C94477F0C94477F0C94477F0C94477F1C
:10FC50000C94477F0C94477F0C94477F0C94477F0C
:10FC60000C94477F0C94477F0C94477F0C94477FFC
:10FC70000C94477F0C94477F0C94477F11241FBE40
:10FC8000CFEFD0E1DEBFCDBF01C003C10E944A7EED
:10FC90000C94947F112484B7E1E6F0E090E890831F
:10FCA0001082882369F0982F9A70923049F081FF72
:10FCB00002C097EF94BF282E80E00E94787F37C162
:10FCC00085E08093810082E08093C00088E180938A
:10FCD000C1008FE08093C40086E08093C200529AF6
:10FCE0005A9888E20E94787F229A2CE0A4E8B0E03B
:10FCF0008CE79CEF31E0E0ECF0E011969C938E9362
:10FD000036BBB09BFECF1A9AA8954081442314F0CD
:10FD1000215099F7A12CBB24B3940E946B7F8134AE
:10FD2000A9F40E946B7F182F0E947E7F123821F465
:10FD300080E00E94597FA7C0113821F487E00E941B
:10FD4000597FA1C083E00E94597F9DC0823421F475
:10FD500084E10E948A7F97C0853421F485E00E9467
:10FD60008A7F91C0853559F40E946B7FC82F0E940D
:10FD70006B7FD82FCC0FDD1F0E947E7F84C086351D
:10FD800039F484E00E948A7F80E00E94597F7BC022
:10FD9000843609F044C00E946B7FE82EF12CFE2CC3
:10FDA000EE240E946B7FE82A0E946B7F782E670109
:10FDB0000A2D1B2D0E946B7FF80181938F01F1E0CA
:10FDC000CF1AD108C114D104A9F70E947E7F8C2ECE
:10FDD0009D2E85E4781201C0FFCF40E050E063E043
:10FDE000CE010E94497F6E010A2D1B2DF801419121
:10FDF00051918F0161E0C6010E94497FF2E0EF1A44
:10FE0000F10882E0C80ED11CE114F10479F740E05A
:10FE100050E065E0882D992D0E94497F34C08437D9
:10FE2000D1F40E946B7FE82EF12CFE2CEE240E9470
:10FE30006B7FE82A0E946B7F0E947E7F8E01F80113
:10FE400085918F010E94597FF1E0EF1AF108E114CA
:10FE5000F104A9F718C0853761F40E947E7F8EE116
:10FE60000E94597F86E90E94597F8AE00E94597F4B
:10FE70000AC0813531F488E00E94787F0E947E7F3D
:10FE800002C00E947E7F80E10E94597F46CF0C9481
:10FE9000007EFC010A0167BFE895112407B600FC4B
:10FEA000FDCF667029F0452B19F481E187BFE895F5
:10FEB0000895E0ECF0E0908195FFFDCF9064909381
:10FEC000C0005A9A8093C600E0ECF0E0808186FF83
:10FED000FDCF5A980895E0ECF0E080818823ECF79C
:10FEE0008091C00084FD01C0A8958091C60008954E
:10FEF000E0E6F0E098E19083808308950E946B7FB4
:10FF0000803221F088E00E94787FFFCF84E10E9458
:10FF1000597F0895CF93C82F0E946B7FC150E1F79E
:0CFF20000E947E7FCF910895F894FFCFDF
:02FF2C000007CC
:040000030000FC00FD
:00000001FF
