:107C00000C943E3E0C94313F0C94313F0C94313F28
:107C10000C94313F0C94313F0C94313F0C94313F24
:107C20000C94313F0C94313F0C94313F0C94313F14
:107C30000C94313F0C94313F0C94313F0C94313F04
:107C40000C94313F0C94313F0C94313F0C94313FF4
:107C50000C94313F0C94313F0C94313F0C94313FE4
:107C60000C94313F0C94313F0C94313F0C94313FD4
:107C70000C94313F0C94313F0C94313F11241FBEC2
:107C8000CFEFD8E0DEBFCDBF01C0EDC00E944A3EBD
:107C90000C947E3F112484B7E1E6F0E090E89083F5
:107CA0001082882369F0982F9A70923049F081FFF2
:107CB00002C097EF94BF282E80E00E94623F21C14E
:107CC00085E08093810082E08093C00088E180930A
:107CD000C1008FE08093C40086E08093C200529A76
:107CE0005A9888E20E94623F239A2CE0A4E8B0E010
:107CF0008CE79CEF31E0E0ECF0E011969C938E93E2
:107D000036BBB09BFECF1B9AA8954081442314F04C
:107D1000215099F7C12CDD24D3940E94553F813422
:107D2000A9F40E94553F182F0E94683F123821F491
:107D300080E00E94433F91C0113821F487E00E9407
:107D4000433F8BC083E00E94433F87C0823421F4CD
:107D500084E10E94743F81C0853421F485E00E9453
:107D6000743F7BC0853559F40E94553FC82F0E944F
:107D7000553FD82FCC0FDD1F0E94683F6EC086355F
:107D800039F484E00E94743F80E00E94433F65C064
:107D90008436B9F50E94553F0E94553FB82E0E9487
:107DA000553FF82E0C2D1D2D0E94553FF801819353
:107DB0008F01BE12F9CF0E94683F9C2EAD2EF5E4D4
:107DC000FF1201C0FFCF40E050E063E0CE010E940F
:107DD000333F7E010C2D1D2DF801419151918F01F2
:107DE00061E0C7010E94333FF2E0EF0EF11CB012D8
:107DF000F3CF40E050E065E0892D9A2D0E94333F9B
:107E00002CC0843791F40E94553F0E94553FF82EB4
:107E10000E94553F0E94683F8E01F80185918F01B5
:107E20000E94433FFA94C9F718C0853761F40E9455
:107E3000683F8EE10E94433F85E90E94433F81E114
:107E40000E94433F0AC0813531F488E00E94623FBE
:107E50000E94683F02C00E94683F80E10E94433F49
:107E60005CCF0C94003EFC010A0167BFE895112429
:107E700007B600FCFDCF667029F0452B19F481E1AF
:107E800087BFE8950895E0ECF0E0908195FFFDCF85
:107E900090649093C0005A9A8093C600E0ECF0E0A2
:107EA000808186FFFDCF5A980895E0ECF0E0808154
:107EB0008823ECF78091C00084FD01C0A8958091D3
:107EC000C6000895E0E6F0E098E19083808308958D
:107ED0000E94553F803221F088E00E94623FFFCF30
:107EE00084E10E94433F0895CF93C82F0E94553FDD
:107EF000C150E1F70E94683FCF910895F894FFCFF9
:027F0000000778
:0400000300007C007D
:00000001FF
