:103C00000C94341E0C94271F0C94271F0C94271F10
:103C10000C94271F0C94271F0C94271F0C94271F0C
:103C20000C94271F0C94271F0C94271F0C94271FFC
:103C30000C94271F0C94271F0C94271F0C94271FEC
:103C40000C94271F0C94271F0C94271F0C94271FDC
:103C50000C94271F0C94271F0C94271F0C94271FCC
:103C60000C94271F0C94271F11241FBECFEFD4E004
:103C7000DEBFCDBF01C0EDC00E94401E0C94741F7A
:103C8000112484B7E1E6F0E090E890831082882365
:103C900069F0982F9A70923049F081FF02C097EF37
:103CA00094BF282E80E00E94581F21C185E0809398
:103CB000810082E08093C00088E18093C1008FE0A2
:103CC0008093C40086E08093C200529A5A9888E29A
:103CD0000E94581F209A28E0A4E8B0E08CE79CEFEF
:103CE00031E0E0ECF0E011969C938E9336BBB09BF4
:103CF000FECF189AA8954081442314F0215099F7DB
:103D0000C12CDD24D3940E944B1F8134A9F40E945E
:103D10004B1F182F0E945E1F123821F480E00E9472
:103D2000391F91C0113821F487E00E94391F8BC0E0
:103D300083E00E94391F87C0823421F484E10E940D
:103D40006A1F81C0853421F485E00E946A1F7BC010
:103D5000853559F40E944B1FC82F0E944B1FD82F46
:103D6000CC0FDD1F0E945E1F6EC0863539F484E0E3
:103D70000E946A1F80E00E94391F65C08436B9F531
:103D80000E944B1F0E944B1FB82E0E944B1FF82E03
:103D90000C2D1D2D0E944B1FF80181938F01BE1227
:103DA000F9CF0E945E1F9C2EAD2EF5E4FF1201C0DC
:103DB000FFCF40E050E063E0CE010E94291F7E016A
:103DC0000C2D1D2DF801419151918F0161E0C7012A
:103DD0000E94291FF2E0EF0EF11CB012F3CF40E079
:103DE00050E065E0892D9A2D0E94291F2CC0843750
:103DF00091F40E944B1F0E944B1FF82E0E944B1FF4
:103E00000E945E1F8E01F80185918F010E94391F6B
:103E1000FA94C9F718C0853761F40E945E1F8EE1DD
:103E20000E94391F84E90E94391F8BE00E94391FCC
:103E30000AC0813531F488E00E94581F0E945E1F3D
:103E400002C00E945E1F80E10E94391F5CCF0C946B
:103E5000001EFC010A0167BFE895112407B600FCAB
:103E6000FDCF667029F0452B19F481E187BFE895F5
:103E70000895E0ECF0E0908195FFFDCF9064909381
:103E8000C0005A9A8093C600E0ECF0E0808186FF83
:103E9000FDCF5A980895E0ECF0E080818823ECF79C
:103EA0008091C00084FD01C0A8958091C60008954E
:103EB000E0E6F0E098E19083808308950E944B1F34
:103EC000803221F088E00E94581FFFCF84E10E94D9
:103ED000391F0895CF93C82F0E944B1FC150E1F79F
:0C3EE0000E945E1FCF910895F894FFCF60
:023EEC000007CD
:0400000300003C00BD
:00000001FF
